{
  "abi": [
    {
      "type": "constructor",
      "inputs": [
        {
          "name": "vrfCoordinator",
          "type": "address",
          "internalType": "address"
        },
        {
          "name": "subscriptionId",
          "type": "uint64",
          "internalType": "uint64"
        },
        {
          "name": "keyHash",
          "type": "bytes32",
          "internalType": "bytes32"
        },
        {
          "name": "callbackGasLimit",
          "type": "uint32",
          "internalType": "uint32"
        },
        {
          "name": "admin",
          "type": "address",
          "internalType": "address"
        }
      ],
      "stateMutability": "nonpayable"
    },
    {
      "type": "function",
      "name": "addParticipant",
      "inputs": [
        {
          "name": "participant",
          "type": "address",
          "internalType": "address"
        },
        {
          "name": "raffleId",
          "type": "uint256",
          "internalType": "uint256"
        }
      ],
      "outputs": [],
      "stateMutability": "nonpayable"
    },
    {
      "type": "function",
      "name": "createRaffle",
      "inputs": [
        {
          "name": "start",
          "type": "uint256",
          "internalType": "uint256"
        },
        {
          "name": "finish",
          "type": "uint256",
          "internalType": "uint256"
        },
        {
          "name": "productInfo",
          "type": "string",
          "internalType": "string"
        }
      ],
      "outputs": [],
      "stateMutability": "nonpayable"
    },
    {
      "type": "function",
      "name": "drawWinner",
      "inputs": [
        {
          "name": "raffleId",
          "type": "uint256",
          "internalType": "uint256"
        }
      ],
      "outputs": [
        {
          "name": "",
          "type": "uint256",
          "internalType": "uint256"
        }
      ],
      "stateMutability": "nonpayable"
    },
    {
      "type": "function",
      "name": "getAdmin",
      "inputs": [],
      "outputs": [
        {
          "name": "",
          "type": "address",
          "internalType": "address"
        }
      ],
      "stateMutability": "view"
    },
    {
      "type": "function",
      "name": "getRaffle",
      "inputs": [
        {
          "name": "raffleId",
          "type": "uint256",
          "internalType": "uint256"
        }
      ],
      "outputs": [
        {
          "name": "",
          "type": "tuple",
          "internalType": "struct RaffleFactory.Raffle",
          "components": [
            {
              "name": "participants",
              "type": "address[]",
              "internalType": "address[]"
            },
            {
              "name": "startingTime",
              "type": "uint256",
              "internalType": "uint256"
            },
            {
              "name": "finishingTime",
              "type": "uint256",
              "internalType": "uint256"
            },
            {
              "name": "winner",
              "type": "address",
              "internalType": "address"
            },
            {
              "name": "status",
              "type": "uint8",
              "internalType": "enum RaffleFactory.Status"
            },
            {
              "name": "metadataURI",
              "type": "string",
              "internalType": "string"
            }
          ]
        }
      ],
      "stateMutability": "view"
    },
    {
      "type": "function",
      "name": "getRaffleCollectionLength",
      "inputs": [],
      "outputs": [
        {
          "name": "",
          "type": "uint256",
          "internalType": "uint256"
        }
      ],
      "stateMutability": "view"
    },
    {
      "type": "function",
      "name": "hasParticipated",
      "inputs": [
        {
          "name": "",
          "type": "uint256",
          "internalType": "uint256"
        },
        {
          "name": "",
          "type": "address",
          "internalType": "address"
        }
      ],
      "outputs": [
        {
          "name": "",
          "type": "bool",
          "internalType": "bool"
        }
      ],
      "stateMutability": "view"
    },
    {
      "type": "function",
      "name": "rawFulfillRandomWords",
      "inputs": [
        {
          "name": "requestId",
          "type": "uint256",
          "internalType": "uint256"
        },
        {
          "name": "randomWords",
          "type": "uint256[]",
          "internalType": "uint256[]"
        }
      ],
      "outputs": [],
      "stateMutability": "nonpayable"
    },
    {
      "type": "function",
      "name": "requestIdToRaffle",
      "inputs": [
        {
          "name": "",
          "type": "uint256",
          "internalType": "uint256"
        }
      ],
      "outputs": [
        {
          "name": "",
          "type": "uint256",
          "internalType": "uint256"
        }
      ],
      "stateMutability": "view"
    },
    {
      "type": "event",
      "name": "ParticipantAdded",
      "inputs": [
        {
          "name": "participant",
          "type": "address",
          "indexed": true,
          "internalType": "address"
        },
        {
          "name": "raffleId",
          "type": "uint256",
          "indexed": true,
          "internalType": "uint256"
        }
      ],
      "anonymous": false
    },
    {
      "type": "event",
      "name": "RaffleCreated",
      "inputs": [
        {
          "name": "raffleId",
          "type": "uint256",
          "indexed": false,
          "internalType": "uint256"
        }
      ],
      "anonymous": false
    },
    {
      "type": "event",
      "name": "WinnerChosen",
      "inputs": [
        {
          "name": "winner",
          "type": "address",
          "indexed": true,
          "internalType": "address"
        },
        {
          "name": "raffleId",
          "type": "uint256",
          "indexed": true,
          "internalType": "uint256"
        }
      ],
      "anonymous": false
    },
    {
      "type": "error",
      "name": "AddParticipant_AlreadyIn",
      "inputs": []
    },
    {
      "type": "error",
      "name": "AddParticipant_InvalidRaffleId",
      "inputs": []
    },
    {
      "type": "error",
      "name": "CreateRaffle_FinishBeforeStart",
      "inputs": []
    },
    {
      "type": "error",
      "name": "DrawWinner_InvalidRaffleId",
      "inputs": []
    },
    {
      "type": "error",
      "name": "DrawWinner_NotEnoughParticipants",
      "inputs": []
    },
    {
      "type": "error",
      "name": "DrawWinner_NotFinishedYet",
      "inputs": []
    },
    {
      "type": "error",
      "name": "DrawWinner_RaffleNotOpen",
      "inputs": []
    },
    {
      "type": "error",
      "name": "GetRaffle_InvalidRaffleId",
      "inputs": []
    },
    {
      "type": "error",
      "name": "NotAdmin",
      "inputs": []
    },
    {
      "type": "error",
      "name": "OnlyCoordinatorCanFulfill",
      "inputs": [
        {
          "name": "have",
          "type": "address",
          "internalType": "address"
        },
        {
          "name": "want",
          "type": "address",
          "internalType": "address"
        }
      ]
    }
  ],
  "bytecode": {
    "object": "0x610140604052348015610010575f5ffd5b50604051611ec8380380611ec88339818101604052810190610032919061021b565b848073ffffffffffffffffffffffffffffffffffffffff1660808173ffffffffffffffffffffffffffffffffffffffff1681525050508473ffffffffffffffffffffffffffffffffffffffff1660a08173ffffffffffffffffffffffffffffffffffffffff16815250508367ffffffffffffffff1660c08167ffffffffffffffff16815250508260e081815250508163ffffffff166101008163ffffffff16815250508073ffffffffffffffffffffffffffffffffffffffff166101208173ffffffffffffffffffffffffffffffffffffffff16815250505050505050610292565b5f5ffd5b5f73ffffffffffffffffffffffffffffffffffffffff82169050919050565b5f61014182610118565b9050919050565b61015181610137565b811461015b575f5ffd5b50565b5f8151905061016c81610148565b92915050565b5f67ffffffffffffffff82169050919050565b61018e81610172565b8114610198575f5ffd5b50565b5f815190506101a981610185565b92915050565b5f819050919050565b6101c1816101af565b81146101cb575f5ffd5b50565b5f815190506101dc816101b8565b92915050565b5f63ffffffff82169050919050565b6101fa816101e2565b8114610204575f5ffd5b50565b5f81519050610215816101f1565b92915050565b5f5f5f5f5f60a0868803121561023457610233610114565b5b5f6102418882890161015e565b95505060206102528882890161019b565b9450506040610263888289016101ce565b935050606061027488828901610207565b92505060806102858882890161015e565b9150509295509295909350565b60805160a05160c05160e0516101005161012051611bda6102ee5f395f81816104ab015281816107ec015261085101525f61074601525f61070201525f61072301525f6106c601525f81816103ea015261043e0152611bda5ff3fe608060405234801561000f575f5ffd5b5060043610610091575f3560e01c80636e9960c3116100645780636e9960c31461011b578063a34398a214610139578063b26f9a6a14610169578063dfa4b5cc14610199578063e4dafec9146101b557610091565b806301e7fefe14610095578063041f1da8146100b15780631fe543e3146100cf57806360b2a56a146100eb575b5f5ffd5b6100af60048036038101906100aa91906110df565b6101e5565b005b6100b96103dd565b6040516100c6919061112c565b60405180910390f35b6100e960048036038101906100e49190611295565b6103e8565b005b610105600480360381019061010091906112ef565b6104a8565b604051610112919061112c565b60405180910390f35b6101236107e9565b6040516101309190611329565b60405180910390f35b610153600480360381019061014e9190611342565b610810565b604051610160919061139a565b60405180910390f35b610183600480360381019061017e91906112ef565b61083a565b604051610190919061112c565b60405180910390f35b6101b360048036038101906101ae919061140c565b61084f565b005b6101cf60048036038101906101ca91906112ef565b610b1f565b6040516101dc91906116a3565b60405180910390f35b5f805490508110610222576040517f3456cce400000000000000000000000000000000000000000000000000000000815260040160405180910390fd5b60025f8281526020019081526020015f205f8373ffffffffffffffffffffffffffffffffffffffff1673ffffffffffffffffffffffffffffffffffffffff1681526020019081526020015f205f9054906101000a900460ff16156102b2576040517fb7062f3100000000000000000000000000000000000000000000000000000000815260040160405180910390fd5b5f81815481106102c5576102c46116c3565b5b905f5260205f2090600502015f0182908060018154018082558091505060019003905f5260205f20015f9091909190916101000a81548173ffffffffffffffffffffffffffffffffffffffff021916908373ffffffffffffffffffffffffffffffffffffffff160217905550600160025f8381526020019081526020015f205f8473ffffffffffffffffffffffffffffffffffffffff1673ffffffffffffffffffffffffffffffffffffffff1681526020019081526020015f205f6101000a81548160ff021916908315150217905550808273ffffffffffffffffffffffffffffffffffffffff167f287ab65235aa9a0baeed5b973fda48c77ebdc6f3dd931cfda1c082c0aecc1e7360405160405180910390a35050565b5f5f80549050905090565b7f000000000000000000000000000000000000000000000000000000000000000073ffffffffffffffffffffffffffffffffffffffff163373ffffffffffffffffffffffffffffffffffffffff161461049a57337f00000000000000000000000000000000000000000000000000000000000000006040517f1cf993f40000000000000000000000000000000000000000000000000000000081526004016104919291906116f0565b60405180910390fd5b6104a48282610d53565b5050565b5f7f000000000000000000000000000000000000000000000000000000000000000073ffffffffffffffffffffffffffffffffffffffff163373ffffffffffffffffffffffffffffffffffffffff161461052e576040517f7bfa4b9f00000000000000000000000000000000000000000000000000000000815260040160405180910390fd5b5f80549050821061056b576040517f62d1dc1f00000000000000000000000000000000000000000000000000000000815260040160405180910390fd5b5f5f838154811061057f5761057e6116c3565b5b905f5260205f209060050201905080600201544210156105cb576040517f9181255500000000000000000000000000000000000000000000000000000000815260040160405180910390fd5b5f60028111156105de576105dd611543565b5b8160030160149054906101000a900460ff16600281111561060257610601611543565b5b14610639576040517fe52b7c8a00000000000000000000000000000000000000000000000000000000815260040160405180910390fd5b5f815f018054905011610678576040517fe1ff181500000000000000000000000000000000000000000000000000000000815260040160405180910390fd5b60015f848154811061068d5761068c6116c3565b5b905f5260205f20906005020160030160146101000a81548160ff021916908360028111156106be576106bd611543565b5b02179055505f7f000000000000000000000000000000000000000000000000000000000000000073ffffffffffffffffffffffffffffffffffffffff16635d3b1d307f00000000000000000000000000000000000000000000000000000000000000007f000000000000000000000000000000000000000000000000000000000000000060037f000000000000000000000000000000000000000000000000000000000000000060016040518663ffffffff1660e01b815260040161078795949392919061178b565b6020604051808303815f875af11580156107a3573d5f5f3e3d5ffd5b505050506040513d601f19601f820116820180604052508101906107c791906117f0565b90508360015f8381526020019081526020015f20819055508092505050919050565b5f7f0000000000000000000000000000000000000000000000000000000000000000905090565b6002602052815f5260405f20602052805f5260405f205f915091509054906101000a900460ff1681565b6001602052805f5260405f205f915090505481565b7f000000000000000000000000000000000000000000000000000000000000000073ffffffffffffffffffffffffffffffffffffffff163373ffffffffffffffffffffffffffffffffffffffff16146108d4576040517f7bfa4b9f00000000000000000000000000000000000000000000000000000000815260040160405180910390fd5b8383101561090e576040517fdd9a7dfd00000000000000000000000000000000000000000000000000000000815260040160405180910390fd5b5f6040518060c001604052805f67ffffffffffffffff81111561093457610933611159565b5b6040519080825280602002602001820160405280156109625781602001602082028036833780820191505090505b5081526020018681526020018581526020015f73ffffffffffffffffffffffffffffffffffffffff1681526020015f60028111156109a3576109a2611543565b5b815260200184848080601f0160208091040260200160405190810160405280939291908181526020018383808284375f81840152601f19601f82011690508083019250505050505050815250908060018154018082558091505060019003905f5260205f2090600502015f909190919091505f820151815f019080519060200190610a2f929190610f45565b5060208201518160010155604082015181600201556060820151816003015f6101000a81548173ffffffffffffffffffffffffffffffffffffffff021916908373ffffffffffffffffffffffffffffffffffffffff16021790555060808201518160030160146101000a81548160ff02191690836002811115610ab557610ab4611543565b5b021790555060a0820151816004019081610acf9190611a18565b5050507f0b5745354685a046e72f24602bcf00fa0ee07f0bf511afb5f2d3ab636241e41b60015f80549050610b049190611b14565b604051610b11919061112c565b60405180910390a150505050565b610b27610fcc565b5f805490508210610b64576040517fb430740d00000000000000000000000000000000000000000000000000000000815260040160405180910390fd5b5f8281548110610b7757610b766116c3565b5b905f5260205f2090600502016040518060c00160405290815f8201805480602002602001604051908101604052809291908181526020018280548015610c0f57602002820191905f5260205f20905b815f9054906101000a900473ffffffffffffffffffffffffffffffffffffffff1673ffffffffffffffffffffffffffffffffffffffff1681526020019060010190808311610bc6575b505050505081526020016001820154815260200160028201548152602001600382015f9054906101000a900473ffffffffffffffffffffffffffffffffffffffff1673ffffffffffffffffffffffffffffffffffffffff1673ffffffffffffffffffffffffffffffffffffffff1681526020016003820160149054906101000a900460ff166002811115610ca657610ca5611543565b5b6002811115610cb857610cb7611543565b5b8152602001600482018054610ccc90611848565b80601f0160208091040260200160405190810160405280929190818152602001828054610cf890611848565b8015610d435780601f10610d1a57610100808354040283529160200191610d43565b820191905f5260205f20905b815481529060010190602001808311610d2657829003601f168201915b5050505050815250509050919050565b5f60015f8481526020019081526020015f205490505f5f8281548110610d7c57610d7b6116c3565b5b905f5260205f2090600502015f0180549050835f81518110610da157610da06116c3565b5b6020026020010151610db39190611b74565b90505f8281548110610dc857610dc76116c3565b5b905f5260205f2090600502015f018181548110610de857610de76116c3565b5b905f5260205f20015f9054906101000a900473ffffffffffffffffffffffffffffffffffffffff165f8381548110610e2357610e226116c3565b5b905f5260205f2090600502016003015f6101000a81548173ffffffffffffffffffffffffffffffffffffffff021916908373ffffffffffffffffffffffffffffffffffffffff16021790555060025f8381548110610e8457610e836116c3565b5b905f5260205f20906005020160030160146101000a81548160ff02191690836002811115610eb557610eb4611543565b5b0217905550815f8381548110610ece57610ecd6116c3565b5b905f5260205f2090600502016003015f9054906101000a900473ffffffffffffffffffffffffffffffffffffffff1673ffffffffffffffffffffffffffffffffffffffff167fc5d1e2a43e1052756e222065802cb80a029bfaf7045b3df42c5c87b92e48de4160405160405180910390a350505050565b828054828255905f5260205f20908101928215610fbb579160200282015b82811115610fba578251825f6101000a81548173ffffffffffffffffffffffffffffffffffffffff021916908373ffffffffffffffffffffffffffffffffffffffff16021790555091602001919060010190610f63565b5b509050610fc89190611026565b5090565b6040518060c00160405280606081526020015f81526020015f81526020015f73ffffffffffffffffffffffffffffffffffffffff1681526020015f600281111561101957611018611543565b5b8152602001606081525090565b5b8082111561103d575f815f905550600101611027565b5090565b5f604051905090565b5f5ffd5b5f5ffd5b5f73ffffffffffffffffffffffffffffffffffffffff82169050919050565b5f61107b82611052565b9050919050565b61108b81611071565b8114611095575f5ffd5b50565b5f813590506110a681611082565b92915050565b5f819050919050565b6110be816110ac565b81146110c8575f5ffd5b50565b5f813590506110d9816110b5565b92915050565b5f5f604083850312156110f5576110f461104a565b5b5f61110285828601611098565b9250506020611113858286016110cb565b9150509250929050565b611126816110ac565b82525050565b5f60208201905061113f5f83018461111d565b92915050565b5f5ffd5b5f601f19601f8301169050919050565b7f4e487b71000000000000000000000000000000000000000000000000000000005f52604160045260245ffd5b61118f82611149565b810181811067ffffffffffffffff821117156111ae576111ad611159565b5b80604052505050565b5f6111c0611041565b90506111cc8282611186565b919050565b5f67ffffffffffffffff8211156111eb576111ea611159565b5b602082029050602081019050919050565b5f5ffd5b5f61121261120d846111d1565b6111b7565b90508083825260208201905060208402830185811115611235576112346111fc565b5b835b8181101561125e578061124a88826110cb565b845260208401935050602081019050611237565b5050509392505050565b5f82601f83011261127c5761127b611145565b5b813561128c848260208601611200565b91505092915050565b5f5f604083850312156112ab576112aa61104a565b5b5f6112b8858286016110cb565b925050602083013567ffffffffffffffff8111156112d9576112d861104e565b5b6112e585828601611268565b9150509250929050565b5f602082840312156113045761130361104a565b5b5f611311848285016110cb565b91505092915050565b61132381611071565b82525050565b5f60208201905061133c5f83018461131a565b92915050565b5f5f604083850312156113585761135761104a565b5b5f611365858286016110cb565b925050602061137685828601611098565b9150509250929050565b5f8115159050919050565b61139481611380565b82525050565b5f6020820190506113ad5f83018461138b565b92915050565b5f5ffd5b5f5f83601f8401126113cc576113cb611145565b5b8235905067ffffffffffffffff8111156113e9576113e86113b3565b5b602083019150836001820283011115611405576114046111fc565b5b9250929050565b5f5f5f5f606085870312156114245761142361104a565b5b5f611431878288016110cb565b9450506020611442878288016110cb565b935050604085013567ffffffffffffffff8111156114635761146261104e565b5b61146f878288016113b7565b925092505092959194509250565b5f81519050919050565b5f82825260208201905092915050565b5f819050602082019050919050565b6114af81611071565b82525050565b5f6114c083836114a6565b60208301905092915050565b5f602082019050919050565b5f6114e28261147d565b6114ec8185611487565b93506114f783611497565b805f5b8381101561152757815161150e88826114b5565b9750611519836114cc565b9250506001810190506114fa565b5085935050505092915050565b61153d816110ac565b82525050565b7f4e487b71000000000000000000000000000000000000000000000000000000005f52602160045260245ffd5b6003811061158157611580611543565b5b50565b5f81905061159182611570565b919050565b5f6115a082611584565b9050919050565b6115b081611596565b82525050565b5f81519050919050565b5f82825260208201905092915050565b8281835e5f83830152505050565b5f6115e8826115b6565b6115f281856115c0565b93506116028185602086016115d0565b61160b81611149565b840191505092915050565b5f60c083015f8301518482035f86015261163082826114d8565b91505060208301516116456020860182611534565b5060408301516116586040860182611534565b50606083015161166b60608601826114a6565b50608083015161167e60808601826115a7565b5060a083015184820360a086015261169682826115de565b9150508091505092915050565b5f6020820190508181035f8301526116bb8184611616565b905092915050565b7f4e487b71000000000000000000000000000000000000000000000000000000005f52603260045260245ffd5b5f6040820190506117035f83018561131a565b611710602083018461131a565b9392505050565b5f819050919050565b61172981611717565b82525050565b5f67ffffffffffffffff82169050919050565b61174b8161172f565b82525050565b5f61ffff82169050919050565b61176781611751565b82525050565b5f63ffffffff82169050919050565b6117858161176d565b82525050565b5f60a08201905061179e5f830188611720565b6117ab6020830187611742565b6117b8604083018661175e565b6117c5606083018561177c565b6117d2608083018461177c565b9695505050505050565b5f815190506117ea816110b5565b92915050565b5f602082840312156118055761180461104a565b5b5f611812848285016117dc565b91505092915050565b7f4e487b71000000000000000000000000000000000000000000000000000000005f52602260045260245ffd5b5f600282049050600182168061185f57607f821691505b6020821081036118725761187161181b565b5b50919050565b5f819050815f5260205f209050919050565b5f6020601f8301049050919050565b5f82821b905092915050565b5f600883026118d47fffffffffffffffffffffffffffffffffffffffffffffffffffffffffffffffff82611899565b6118de8683611899565b95508019841693508086168417925050509392505050565b5f819050919050565b5f61191961191461190f846110ac565b6118f6565b6110ac565b9050919050565b5f819050919050565b611932836118ff565b61194661193e82611920565b8484546118a5565b825550505050565b5f5f905090565b61195d61194e565b611968818484611929565b505050565b5b8181101561198b576119805f82611955565b60018101905061196e565b5050565b601f8211156119d0576119a181611878565b6119aa8461188a565b810160208510156119b9578190505b6119cd6119c58561188a565b83018261196d565b50505b505050565b5f82821c905092915050565b5f6119f05f19846008026119d5565b1980831691505092915050565b5f611a0883836119e1565b9150826002028217905092915050565b611a21826115b6565b67ffffffffffffffff811115611a3a57611a39611159565b5b611a448254611848565b611a4f82828561198f565b5f60209050601f831160018114611a80575f8415611a6e578287015190505b611a7885826119fd565b865550611adf565b601f198416611a8e86611878565b5f5b82811015611ab557848901518255600182019150602085019450602081019050611a90565b86831015611ad25784890151611ace601f8916826119e1565b8355505b6001600288020188555050505b505050505050565b7f4e487b71000000000000000000000000000000000000000000000000000000005f52601160045260245ffd5b5f611b1e826110ac565b9150611b29836110ac565b9250828203905081811115611b4157611b40611ae7565b5b92915050565b7f4e487b71000000000000000000000000000000000000000000000000000000005f52601260045260245ffd5b5f611b7e826110ac565b9150611b89836110ac565b925082611b9957611b98611b47565b5b82820690509291505056fea2646970667358221220c19bfcaa0a23c15fa3c73d513fbe72ac146f752462042fad98f2af7d94c4663164736f6c634300081e0033",
    "linkReferences": {}
  },
  "methodIdentifiers": {
    "addParticipant(address,uint256)": "01e7fefe",
    "createRaffle(uint256,uint256,string)": "dfa4b5cc",
    "drawWinner(uint256)": "60b2a56a",
    "getAdmin()": "6e9960c3",
    "getRaffle(uint256)": "e4dafec9",
    "getRaffleCollectionLength()": "041f1da8",
    "hasParticipated(uint256,address)": "a34398a2",
    "rawFulfillRandomWords(uint256,uint256[])": "1fe543e3",
    "requestIdToRaffle(uint256)": "b26f9a6a"
  },
  "id": 18
}