{
  "abi": [
    {
      "type": "constructor",
      "inputs": [
        {
          "name": "vrfCoordinator",
          "type": "address",
          "internalType": "address"
        },
        {
          "name": "subscriptionId",
          "type": "uint64",
          "internalType": "uint64"
        },
        {
          "name": "keyHash",
          "type": "bytes32",
          "internalType": "bytes32"
        },
        {
          "name": "callbackGasLimit",
          "type": "uint32",
          "internalType": "uint32"
        },
        {
          "name": "admin",
          "type": "address",
          "internalType": "address"
        }
      ],
      "stateMutability": "nonpayable"
    },
    {
      "type": "function",
      "name": "addParticipant",
      "inputs": [
        {
          "name": "participant",
          "type": "address",
          "internalType": "address"
        },
        {
          "name": "raffleId",
          "type": "uint256",
          "internalType": "uint256"
        }
      ],
      "outputs": [],
      "stateMutability": "nonpayable"
    },
    {
      "type": "function",
      "name": "createRaffle",
      "inputs": [
        {
          "name": "start",
          "type": "uint256",
          "internalType": "uint256"
        },
        {
          "name": "finish",
          "type": "uint256",
          "internalType": "uint256"
        },
        {
          "name": "productInfo",
          "type": "string",
          "internalType": "string"
        }
      ],
      "outputs": [],
      "stateMutability": "nonpayable"
    },
    {
      "type": "function",
      "name": "drawWinner",
      "inputs": [
        {
          "name": "raffleId",
          "type": "uint256",
          "internalType": "uint256"
        }
      ],
      "outputs": [
        {
          "name": "",
          "type": "uint256",
          "internalType": "uint256"
        }
      ],
      "stateMutability": "nonpayable"
    },
    {
      "type": "function",
      "name": "getAdmin",
      "inputs": [],
      "outputs": [
        {
          "name": "",
          "type": "address",
          "internalType": "address"
        }
      ],
      "stateMutability": "view"
    },
    {
      "type": "function",
      "name": "getRaffle",
      "inputs": [
        {
          "name": "raffleId",
          "type": "uint256",
          "internalType": "uint256"
        }
      ],
      "outputs": [
        {
          "name": "",
          "type": "tuple",
          "internalType": "struct RaffleFactory.Raffle",
          "components": [
            {
              "name": "participants",
              "type": "address[]",
              "internalType": "address[]"
            },
            {
              "name": "startingTime",
              "type": "uint256",
              "internalType": "uint256"
            },
            {
              "name": "finishingTime",
              "type": "uint256",
              "internalType": "uint256"
            },
            {
              "name": "winner",
              "type": "address",
              "internalType": "address"
            },
            {
              "name": "status",
              "type": "uint8",
              "internalType": "enum RaffleFactory.Status"
            },
            {
              "name": "metadataURI",
              "type": "string",
              "internalType": "string"
            }
          ]
        }
      ],
      "stateMutability": "view"
    },
    {
      "type": "function",
      "name": "getRaffleCollectionLength",
      "inputs": [],
      "outputs": [
        {
          "name": "",
          "type": "uint256",
          "internalType": "uint256"
        }
      ],
      "stateMutability": "view"
    },
    {
      "type": "function",
      "name": "rawFulfillRandomWords",
      "inputs": [
        {
          "name": "requestId",
          "type": "uint256",
          "internalType": "uint256"
        },
        {
          "name": "randomWords",
          "type": "uint256[]",
          "internalType": "uint256[]"
        }
      ],
      "outputs": [],
      "stateMutability": "nonpayable"
    },
    {
      "type": "function",
      "name": "requestIdToRaffle",
      "inputs": [
        {
          "name": "",
          "type": "uint256",
          "internalType": "uint256"
        }
      ],
      "outputs": [
        {
          "name": "",
          "type": "uint256",
          "internalType": "uint256"
        }
      ],
      "stateMutability": "view"
    },
    {
      "type": "event",
      "name": "ParticipantAdded",
      "inputs": [
        {
          "name": "participant",
          "type": "address",
          "indexed": true,
          "internalType": "address"
        },
        {
          "name": "raffleId",
          "type": "uint256",
          "indexed": true,
          "internalType": "uint256"
        }
      ],
      "anonymous": false
    },
    {
      "type": "event",
      "name": "RaffleCreated",
      "inputs": [
        {
          "name": "raffleId",
          "type": "uint256",
          "indexed": false,
          "internalType": "uint256"
        }
      ],
      "anonymous": false
    },
    {
      "type": "event",
      "name": "WinnerChosen",
      "inputs": [
        {
          "name": "winner",
          "type": "address",
          "indexed": true,
          "internalType": "address"
        },
        {
          "name": "raffleId",
          "type": "uint256",
          "indexed": true,
          "internalType": "uint256"
        }
      ],
      "anonymous": false
    },
    {
      "type": "error",
      "name": "AddParticipant_AlreadyIn",
      "inputs": []
    },
    {
      "type": "error",
      "name": "AddParticipant_InvalidRaffleId",
      "inputs": []
    },
    {
      "type": "error",
      "name": "CreateRaffle_FinishBeforeStart",
      "inputs": []
    },
    {
      "type": "error",
      "name": "DrawWinner_InvalidRaffleId",
      "inputs": []
    },
    {
      "type": "error",
      "name": "DrawWinner_NotEnoughParticipants",
      "inputs": []
    },
    {
      "type": "error",
      "name": "DrawWinner_NotFinishedYet",
      "inputs": []
    },
    {
      "type": "error",
      "name": "DrawWinner_RaffleNotOpen",
      "inputs": []
    },
    {
      "type": "error",
      "name": "GetRaffle_InvalidRaffleId",
      "inputs": []
    },
    {
      "type": "error",
      "name": "NotAdmin",
      "inputs": []
    },
    {
      "type": "error",
      "name": "OnlyCoordinatorCanFulfill",
      "inputs": [
        {
          "name": "have",
          "type": "address",
          "internalType": "address"
        },
        {
          "name": "want",
          "type": "address",
          "internalType": "address"
        }
      ]
    }
  ],
  "bytecode": {
    "object": "0x610140604052348015610010575f5ffd5b50604051611df2380380611df28339818101604052810190610032919061021b565b848073ffffffffffffffffffffffffffffffffffffffff1660808173ffffffffffffffffffffffffffffffffffffffff1681525050508473ffffffffffffffffffffffffffffffffffffffff1660a08173ffffffffffffffffffffffffffffffffffffffff16815250508367ffffffffffffffff1660c08167ffffffffffffffff16815250508260e081815250508163ffffffff166101008163ffffffff16815250508073ffffffffffffffffffffffffffffffffffffffff166101208173ffffffffffffffffffffffffffffffffffffffff16815250505050505050610292565b5f5ffd5b5f73ffffffffffffffffffffffffffffffffffffffff82169050919050565b5f61014182610118565b9050919050565b61015181610137565b811461015b575f5ffd5b50565b5f8151905061016c81610148565b92915050565b5f67ffffffffffffffff82169050919050565b61018e81610172565b8114610198575f5ffd5b50565b5f815190506101a981610185565b92915050565b5f819050919050565b6101c1816101af565b81146101cb575f5ffd5b50565b5f815190506101dc816101b8565b92915050565b5f63ffffffff82169050919050565b6101fa816101e2565b8114610204575f5ffd5b50565b5f81519050610215816101f1565b92915050565b5f5f5f5f5f60a0868803121561023457610233610114565b5b5f6102418882890161015e565b95505060206102528882890161019b565b9450506040610263888289016101ce565b935050606061027488828901610207565b92505060806102858882890161015e565b9150509295509295909350565b60805160a05160c05160e0516101005161012051611b046102ee5f395f8181610470015281816107b101526107ec01525f61070b01525f6106c701525f6106e801525f61068b01525f81816103af01526104030152611b045ff3fe608060405234801561000f575f5ffd5b5060043610610086575f3560e01c80636e9960c3116100595780636e9960c314610110578063b26f9a6a1461012e578063dfa4b5cc1461015e578063e4dafec91461017a57610086565b806301e7fefe1461008a578063041f1da8146100a65780631fe543e3146100c457806360b2a56a146100e0575b5f5ffd5b6100a4600480360381019061009f919061107a565b6101aa565b005b6100ae6103a2565b6040516100bb91906110c7565b60405180910390f35b6100de60048036038101906100d99190611230565b6103ad565b005b6100fa60048036038101906100f5919061128a565b61046d565b60405161010791906110c7565b60405180910390f35b6101186107ae565b60405161012591906112c4565b60405180910390f35b6101486004803603810190610143919061128a565b6107d5565b60405161015591906110c7565b60405180910390f35b61017860048036038101906101739190611336565b6107ea565b005b610194600480360381019061018f919061128a565b610aba565b6040516101a191906115cd565b60405180910390f35b5f8054905081106101e7576040517f3456cce400000000000000000000000000000000000000000000000000000000815260040160405180910390fd5b60025f8281526020019081526020015f205f8373ffffffffffffffffffffffffffffffffffffffff1673ffffffffffffffffffffffffffffffffffffffff1681526020019081526020015f205f9054906101000a900460ff1615610277576040517fb7062f3100000000000000000000000000000000000000000000000000000000815260040160405180910390fd5b5f818154811061028a576102896115ed565b5b905f5260205f2090600502015f0182908060018154018082558091505060019003905f5260205f20015f9091909190916101000a81548173ffffffffffffffffffffffffffffffffffffffff021916908373ffffffffffffffffffffffffffffffffffffffff160217905550600160025f8381526020019081526020015f205f8473ffffffffffffffffffffffffffffffffffffffff1673ffffffffffffffffffffffffffffffffffffffff1681526020019081526020015f205f6101000a81548160ff021916908315150217905550808273ffffffffffffffffffffffffffffffffffffffff167f287ab65235aa9a0baeed5b973fda48c77ebdc6f3dd931cfda1c082c0aecc1e7360405160405180910390a35050565b5f5f80549050905090565b7f000000000000000000000000000000000000000000000000000000000000000073ffffffffffffffffffffffffffffffffffffffff163373ffffffffffffffffffffffffffffffffffffffff161461045f57337f00000000000000000000000000000000000000000000000000000000000000006040517f1cf993f400000000000000000000000000000000000000000000000000000000815260040161045692919061161a565b60405180910390fd5b6104698282610cee565b5050565b5f7f000000000000000000000000000000000000000000000000000000000000000073ffffffffffffffffffffffffffffffffffffffff163373ffffffffffffffffffffffffffffffffffffffff16146104f3576040517f7bfa4b9f00000000000000000000000000000000000000000000000000000000815260040160405180910390fd5b5f805490508210610530576040517f62d1dc1f00000000000000000000000000000000000000000000000000000000815260040160405180910390fd5b5f5f8381548110610544576105436115ed565b5b905f5260205f20906005020190508060020154421015610590576040517f9181255500000000000000000000000000000000000000000000000000000000815260040160405180910390fd5b5f60028111156105a3576105a261146d565b5b8160030160149054906101000a900460ff1660028111156105c7576105c661146d565b5b146105fe576040517fe52b7c8a00000000000000000000000000000000000000000000000000000000815260040160405180910390fd5b5f815f01805490501161063d576040517fe1ff181500000000000000000000000000000000000000000000000000000000815260040160405180910390fd5b60015f8481548110610652576106516115ed565b5b905f5260205f20906005020160030160146101000a81548160ff021916908360028111156106835761068261146d565b5b02179055505f7f000000000000000000000000000000000000000000000000000000000000000073ffffffffffffffffffffffffffffffffffffffff16635d3b1d307f00000000000000000000000000000000000000000000000000000000000000007f000000000000000000000000000000000000000000000000000000000000000060037f000000000000000000000000000000000000000000000000000000000000000060016040518663ffffffff1660e01b815260040161074c9594939291906116b5565b6020604051808303815f875af1158015610768573d5f5f3e3d5ffd5b505050506040513d601f19601f8201168201806040525081019061078c919061171a565b90508360015f8381526020019081526020015f20819055508092505050919050565b5f7f0000000000000000000000000000000000000000000000000000000000000000905090565b6001602052805f5260405f205f915090505481565b7f000000000000000000000000000000000000000000000000000000000000000073ffffffffffffffffffffffffffffffffffffffff163373ffffffffffffffffffffffffffffffffffffffff161461086f576040517f7bfa4b9f00000000000000000000000000000000000000000000000000000000815260040160405180910390fd5b838310156108a9576040517fdd9a7dfd00000000000000000000000000000000000000000000000000000000815260040160405180910390fd5b5f6040518060c001604052805f67ffffffffffffffff8111156108cf576108ce6110f4565b5b6040519080825280602002602001820160405280156108fd5781602001602082028036833780820191505090505b5081526020018681526020018581526020015f73ffffffffffffffffffffffffffffffffffffffff1681526020015f600281111561093e5761093d61146d565b5b815260200184848080601f0160208091040260200160405190810160405280939291908181526020018383808284375f81840152601f19601f82011690508083019250505050505050815250908060018154018082558091505060019003905f5260205f2090600502015f909190919091505f820151815f0190805190602001906109ca929190610ee0565b5060208201518160010155604082015181600201556060820151816003015f6101000a81548173ffffffffffffffffffffffffffffffffffffffff021916908373ffffffffffffffffffffffffffffffffffffffff16021790555060808201518160030160146101000a81548160ff02191690836002811115610a5057610a4f61146d565b5b021790555060a0820151816004019081610a6a9190611942565b5050507f0b5745354685a046e72f24602bcf00fa0ee07f0bf511afb5f2d3ab636241e41b60015f80549050610a9f9190611a3e565b604051610aac91906110c7565b60405180910390a150505050565b610ac2610f67565b5f805490508210610aff576040517fb430740d00000000000000000000000000000000000000000000000000000000815260040160405180910390fd5b5f8281548110610b1257610b116115ed565b5b905f5260205f2090600502016040518060c00160405290815f8201805480602002602001604051908101604052809291908181526020018280548015610baa57602002820191905f5260205f20905b815f9054906101000a900473ffffffffffffffffffffffffffffffffffffffff1673ffffffffffffffffffffffffffffffffffffffff1681526020019060010190808311610b61575b505050505081526020016001820154815260200160028201548152602001600382015f9054906101000a900473ffffffffffffffffffffffffffffffffffffffff1673ffffffffffffffffffffffffffffffffffffffff1673ffffffffffffffffffffffffffffffffffffffff1681526020016003820160149054906101000a900460ff166002811115610c4157610c4061146d565b5b6002811115610c5357610c5261146d565b5b8152602001600482018054610c6790611772565b80601f0160208091040260200160405190810160405280929190818152602001828054610c9390611772565b8015610cde5780601f10610cb557610100808354040283529160200191610cde565b820191905f5260205f20905b815481529060010190602001808311610cc157829003601f168201915b5050505050815250509050919050565b5f60015f8481526020019081526020015f205490505f5f8281548110610d1757610d166115ed565b5b905f5260205f2090600502015f0180549050835f81518110610d3c57610d3b6115ed565b5b6020026020010151610d4e9190611a9e565b90505f8281548110610d6357610d626115ed565b5b905f5260205f2090600502015f018181548110610d8357610d826115ed565b5b905f5260205f20015f9054906101000a900473ffffffffffffffffffffffffffffffffffffffff165f8381548110610dbe57610dbd6115ed565b5b905f5260205f2090600502016003015f6101000a81548173ffffffffffffffffffffffffffffffffffffffff021916908373ffffffffffffffffffffffffffffffffffffffff16021790555060025f8381548110610e1f57610e1e6115ed565b5b905f5260205f20906005020160030160146101000a81548160ff02191690836002811115610e5057610e4f61146d565b5b0217905550815f8381548110610e6957610e686115ed565b5b905f5260205f2090600502016003015f9054906101000a900473ffffffffffffffffffffffffffffffffffffffff1673ffffffffffffffffffffffffffffffffffffffff167fc5d1e2a43e1052756e222065802cb80a029bfaf7045b3df42c5c87b92e48de4160405160405180910390a350505050565b828054828255905f5260205f20908101928215610f56579160200282015b82811115610f55578251825f6101000a81548173ffffffffffffffffffffffffffffffffffffffff021916908373ffffffffffffffffffffffffffffffffffffffff16021790555091602001919060010190610efe565b5b509050610f639190610fc1565b5090565b6040518060c00160405280606081526020015f81526020015f81526020015f73ffffffffffffffffffffffffffffffffffffffff1681526020015f6002811115610fb457610fb361146d565b5b8152602001606081525090565b5b80821115610fd8575f815f905550600101610fc2565b5090565b5f604051905090565b5f5ffd5b5f5ffd5b5f73ffffffffffffffffffffffffffffffffffffffff82169050919050565b5f61101682610fed565b9050919050565b6110268161100c565b8114611030575f5ffd5b50565b5f813590506110418161101d565b92915050565b5f819050919050565b61105981611047565b8114611063575f5ffd5b50565b5f8135905061107481611050565b92915050565b5f5f604083850312156110905761108f610fe5565b5b5f61109d85828601611033565b92505060206110ae85828601611066565b9150509250929050565b6110c181611047565b82525050565b5f6020820190506110da5f8301846110b8565b92915050565b5f5ffd5b5f601f19601f8301169050919050565b7f4e487b71000000000000000000000000000000000000000000000000000000005f52604160045260245ffd5b61112a826110e4565b810181811067ffffffffffffffff82111715611149576111486110f4565b5b80604052505050565b5f61115b610fdc565b90506111678282611121565b919050565b5f67ffffffffffffffff821115611186576111856110f4565b5b602082029050602081019050919050565b5f5ffd5b5f6111ad6111a88461116c565b611152565b905080838252602082019050602084028301858111156111d0576111cf611197565b5b835b818110156111f957806111e58882611066565b8452602084019350506020810190506111d2565b5050509392505050565b5f82601f830112611217576112166110e0565b5b813561122784826020860161119b565b91505092915050565b5f5f6040838503121561124657611245610fe5565b5b5f61125385828601611066565b925050602083013567ffffffffffffffff81111561127457611273610fe9565b5b61128085828601611203565b9150509250929050565b5f6020828403121561129f5761129e610fe5565b5b5f6112ac84828501611066565b91505092915050565b6112be8161100c565b82525050565b5f6020820190506112d75f8301846112b5565b92915050565b5f5ffd5b5f5f83601f8401126112f6576112f56110e0565b5b8235905067ffffffffffffffff811115611313576113126112dd565b5b60208301915083600182028301111561132f5761132e611197565b5b9250929050565b5f5f5f5f6060858703121561134e5761134d610fe5565b5b5f61135b87828801611066565b945050602061136c87828801611066565b935050604085013567ffffffffffffffff81111561138d5761138c610fe9565b5b611399878288016112e1565b925092505092959194509250565b5f81519050919050565b5f82825260208201905092915050565b5f819050602082019050919050565b6113d98161100c565b82525050565b5f6113ea83836113d0565b60208301905092915050565b5f602082019050919050565b5f61140c826113a7565b61141681856113b1565b9350611421836113c1565b805f5b8381101561145157815161143888826113df565b9750611443836113f6565b925050600181019050611424565b5085935050505092915050565b61146781611047565b82525050565b7f4e487b71000000000000000000000000000000000000000000000000000000005f52602160045260245ffd5b600381106114ab576114aa61146d565b5b50565b5f8190506114bb8261149a565b919050565b5f6114ca826114ae565b9050919050565b6114da816114c0565b82525050565b5f81519050919050565b5f82825260208201905092915050565b8281835e5f83830152505050565b5f611512826114e0565b61151c81856114ea565b935061152c8185602086016114fa565b611535816110e4565b840191505092915050565b5f60c083015f8301518482035f86015261155a8282611402565b915050602083015161156f602086018261145e565b506040830151611582604086018261145e565b50606083015161159560608601826113d0565b5060808301516115a860808601826114d1565b5060a083015184820360a08601526115c08282611508565b9150508091505092915050565b5f6020820190508181035f8301526115e58184611540565b905092915050565b7f4e487b71000000000000000000000000000000000000000000000000000000005f52603260045260245ffd5b5f60408201905061162d5f8301856112b5565b61163a60208301846112b5565b9392505050565b5f819050919050565b61165381611641565b82525050565b5f67ffffffffffffffff82169050919050565b61167581611659565b82525050565b5f61ffff82169050919050565b6116918161167b565b82525050565b5f63ffffffff82169050919050565b6116af81611697565b82525050565b5f60a0820190506116c85f83018861164a565b6116d5602083018761166c565b6116e26040830186611688565b6116ef60608301856116a6565b6116fc60808301846116a6565b9695505050505050565b5f8151905061171481611050565b92915050565b5f6020828403121561172f5761172e610fe5565b5b5f61173c84828501611706565b91505092915050565b7f4e487b71000000000000000000000000000000000000000000000000000000005f52602260045260245ffd5b5f600282049050600182168061178957607f821691505b60208210810361179c5761179b611745565b5b50919050565b5f819050815f5260205f209050919050565b5f6020601f8301049050919050565b5f82821b905092915050565b5f600883026117fe7fffffffffffffffffffffffffffffffffffffffffffffffffffffffffffffffff826117c3565b61180886836117c3565b95508019841693508086168417925050509392505050565b5f819050919050565b5f61184361183e61183984611047565b611820565b611047565b9050919050565b5f819050919050565b61185c83611829565b6118706118688261184a565b8484546117cf565b825550505050565b5f5f905090565b611887611878565b611892818484611853565b505050565b5b818110156118b5576118aa5f8261187f565b600181019050611898565b5050565b601f8211156118fa576118cb816117a2565b6118d4846117b4565b810160208510156118e3578190505b6118f76118ef856117b4565b830182611897565b50505b505050565b5f82821c905092915050565b5f61191a5f19846008026118ff565b1980831691505092915050565b5f611932838361190b565b9150826002028217905092915050565b61194b826114e0565b67ffffffffffffffff811115611964576119636110f4565b5b61196e8254611772565b6119798282856118b9565b5f60209050601f8311600181146119aa575f8415611998578287015190505b6119a28582611927565b865550611a09565b601f1984166119b8866117a2565b5f5b828110156119df578489015182556001820191506020850194506020810190506119ba565b868310156119fc57848901516119f8601f89168261190b565b8355505b6001600288020188555050505b505050505050565b7f4e487b71000000000000000000000000000000000000000000000000000000005f52601160045260245ffd5b5f611a4882611047565b9150611a5383611047565b9250828203905081811115611a6b57611a6a611a11565b5b92915050565b7f4e487b71000000000000000000000000000000000000000000000000000000005f52601260045260245ffd5b5f611aa882611047565b9150611ab383611047565b925082611ac357611ac2611a71565b5b82820690509291505056fea264697066735822122002b02570d8b287af7ddbc993a76f29e1f686567b8386251ac89df45e7836707564736f6c634300081e0033",
    "linkReferences": {}
  },
  "methodIdentifiers": {
    "addParticipant(address,uint256)": "01e7fefe",
    "createRaffle(uint256,uint256,string)": "dfa4b5cc",
    "drawWinner(uint256)": "60b2a56a",
    "getAdmin()": "6e9960c3",
    "getRaffle(uint256)": "e4dafec9",
    "getRaffleCollectionLength()": "041f1da8",
    "rawFulfillRandomWords(uint256,uint256[])": "1fe543e3",
    "requestIdToRaffle(uint256)": "b26f9a6a"
  },
  "id": 18
}